:1000000040460020F9240000556F0000E524000060
:10001000E5240000E5240000E524000000000000C5
:10002000000000000000000000000000B9260000F1
:10003000E52400000000000055260000E524000033
:1000400095280000952800009528000095280000BC
:1000500095280000952800009528000095280000AC
:10006000952800009528000095280000952800009C
:10007000952800009528000095280000952800008C
:10008000952800009528000095280000952800007C
:10009000952800009528000095280000952800006C
:1000A000952800009528000095280000952800005C
:1000B000952800009528000095280000952800004C
:1000C000952800009528000095280000952800003C
:1000D000952800009528000095280000952800002C
:1000E000952800009528000095280000952800001C
:1000F000952800009528000095280000952800000C
:1001000081F0004102E000BF83F0004330B54FEAC8
:1001100041044FEA430594EA050F08BF90EA020F35
:100120001FBF54EA000C55EA020C7FEA645C7FEAC8
:10013000655C00F0E2804FEA5454D4EB5555B8BFEB
:100140006D420CDD2C4480EA020281EA030382EA5C
:10015000000083EA010180EA020281EA0303362DEE
:1001600088BF30BD11F0004F4FEA01314FF4801CC1
:100170004CEA113102D0404261EB410113F0004FD3
:100180004FEA03334CEA133302D0524263EB43038A
:1001900094EA050F00F0A780A4F10104D5F1200E28
:1001A0000DDB02FA0EFC22FA05F2801841F1000183
:1001B00003FA0EF2801843FA05F359410EE0A5F157
:1001C00020050EF1200E012A03FA0EFC28BF4CF088
:1001D000020C43FA05F3C01851EBE37101F000453E
:1001E00007D54FF0000EDCF1000C7EEB00006EEB4B
:1001F0000101B1F5801F1BD3B1F5001F0CD34908D5
:100200005FEA30004FEA3C0C04F101044FEA44522B
:1002100012F5800F80F09A80BCF1004F08BF5FEAB2
:10022000500C50F1000041EB045141EA050130BD92
:100230005FEA4C0C404141EB0101013C28BFB1F5A4
:10024000801FE9D291F0000F04BF01460020B1FAEF
:1002500081F308BF2033A3F10B03B3F120020CDAC2
:100260000C3208DD02F1140CC2F10C0201FA0CF0A0
:1002700021FA02F10CE002F11402D8BFC2F1200C05
:1002800001FA02F120FA0CFCDCBF41EA0C019040BB
:10029000E41AA2BF01EB0451294330BD6FEA040404
:1002A0001F3C1CDA0C340EDC04F11404C4F12002EF
:1002B00020FA04F001FA02F340EA030021FA04F301
:1002C00045EA030130BDC4F10C04C4F1200220FA58
:1002D00002F001FA04F340EA0300294630BD21FA96
:1002E00004F0294630BD94F0000F83F4801306BF5C
:1002F00081F480110134013D4EE77FEA645C18BF50
:100300007FEA655C29D094EA050F08BF90EA020FE6
:1003100005D054EA000C04BF1946104630BD91EADE
:10032000030F1EBF0021002030BD5FEA545C05D1E1
:100330004000494128BF41F0004130BD14F5800420
:100340003CBF01F5801130BD01F0004545F0FE4194
:1003500041F470014FF0000030BD7FEA645C1ABFC9
:10036000194610467FEA655C1CBF0B46024650EA00
:10037000013406BF52EA033591EA030F41F400212C
:1003800030BD00BF90F0000F04BF0021704730B5B2
:100390004FF4806404F132044FF000054FF0000187
:1003A00050E700BF90F0000F04BF0021704730B548
:1003B0004FF4806404F1320410F0004548BF40421D
:1003C0004FF000013EE700BF42004FEAE2014FEA72
:1003D00031014FEA02701FBF12F07F4393F07F4F4D
:1003E00081F06051704732F07F4208BF704793F050
:1003F0007F4F04BF41F40021704730B54FF4607463
:1004000001F0004521F000411CE700BF50EA010265
:1004100008BF704730B54FF000050AE050EA01020E
:1004200008BF704730B511F0004502D5404261EB7E
:1004300041014FF4806404F132045FEA915C3FF4BF
:10044000D8AE4FF003025FEADC0C18BF03325FEA5C
:10045000DC0C18BF033202EBDC02C2F1200300FA0D
:1004600003FC20FA02F001FA03FE40EA0E0021FA32
:1004700002F11444BDE600BF70B54FF0FF0C4CF420
:10048000E06C1CEA11541DBF1CEA135594EA0C0FD2
:1004900095EA0C0F00F0DEF82C4481EA030621EA0D
:1004A0004C5123EA4C5350EA013518BF52EA033548
:1004B00041F4801143F4801338D0A0FB02CE4FF0FA
:1004C0000005E1FB02E506F00042E0FB03E54FF02A
:1004D0000006E1FB03569CF0000F18BF4EF0010E22
:1004E000A4F1FF04B6F5007F64F5407404D25FEA1E
:1004F0004E0E6D4146EB060642EAC62141EA5551D1
:100500004FEAC52040EA5E504FEACE2EB4F1FD0C12
:1005100088BFBCF5E06F1ED8BEF1004F08BF5FEA90
:10052000500E50F1000041EB045170BD06F0004642
:1005300046EA010140EA020081EA0301B4EB5C04EF
:10054000C2BFD4EB0C0541EA045170BD41F48011E7
:100550004FF0000E013C00F3AB8014F1360FDEBF0C
:10056000002001F0004170BDC4F10004203C35DAE8
:100570000C341BDC04F11404C4F1200500FA05F36B
:1005800020FA04F001FA05F240EA020001F000420C
:1005900021F0004110EBD37021FA04F642EB060182
:1005A0005EEA430E08BF20EAD37070BDC4F10C04AC
:1005B000C4F1200500FA04F320FA05F001FA04F270
:1005C00040EA020001F0004110EBD37041F100015C
:1005D0005EEA430E08BF20EAD37070BDC4F1200567
:1005E00000FA05F24EEA020E20FA04F301FA05F2CF
:1005F00043EA020321FA04F001F0004121FA04F277
:1006000020EA020000EBD3705EEA430E08BF20EA46
:10061000D37070BD94F0000F0FD101F00046400080
:1006200041EB010111F4801F08BF013CF7D041EA02
:10063000060195F0000F18BF704703F00046520006
:1006400043EB030313F4801F08BF013DF7D043EAD7
:100650000603704794EA0C0F0CEA135518BF95EA8D
:100660000C0F0CD050EA410618BF52EA4306D1D114
:1006700081EA030101F000414FF0000070BD50EA33
:10068000410606BF1046194652EA430619D094EABD
:100690000C0F02D150EA013613D195EA0C0F05D1A7
:1006A00052EA03361CBF104619460AD181EA0301FB
:1006B00001F0004141F0FE4141F470014FF00000B3
:1006C00070BD41F0FE4141F4780170BD70B54FF04E
:1006D000FF0C4CF4E06C1CEA11541DBF1CEA1355CE
:1006E00094EA0C0F95EA0C0F00F0A7F8A4EB0504B0
:1006F00081EA030E52EA03354FEA013100F08880A7
:100700004FEA03334FF0805545EA131343EA12636F
:100710004FEA022245EA111545EA10654FEA002624
:100720000EF000419D4208BF964244F1FD0404F5DD
:10073000407402D25B084FEA3202B61A65EB030539
:100740005B084FEA32024FF480104FF4002CB6EBF6
:10075000020E75EB030E22BFB61A754640EA0C0076
:100760005B084FEA3202B6EB020E75EB030E22BFB6
:10077000B61A754640EA5C005B084FEA3202B6EBF7
:10078000020E75EB030E22BFB61A754640EA9C00B6
:100790005B084FEA3202B6EB020E75EB030E22BF86
:1007A000B61A754640EADC0055EA060E18D04FEA44
:1007B000051545EA16754FEA06164FEAC30343EAE4
:1007C00052734FEAC2025FEA1C1CC0D111F4801FB1
:1007D0000BD141EA00014FF000004FF0004CB6E7AA
:1007E00011F4801F04BF01430020B4F1FD0C88BF49
:1007F000BCF5E06F3FF6AFAEB5EB030C04BFB6EB54
:10080000020C5FEA500C50F1000041EB045170BD46
:100810000EF0004E4EEA113114EB5C04C2BFD4EB73
:100820000C0541EA045170BD41F480114FF0000EF7
:10083000013C90E645EA060E8DE60CEA135594EA73
:100840000C0F08BF95EA0C0F3FF43BAF94EA0C0F76
:100850000AD150EA01347FF434AF95EA0C0F7FF4EB
:1008600025AF104619462CE795EA0C0F06D152EA3F
:1008700003353FF4FDAE1046194622E750EA410623
:1008800018BF52EA43067FF4C5AE50EA41047FF434
:100890000DAF52EA43057FF4EBAE12E74FEA410297
:1008A000B2F1E04324BFB3F5001CDCF1FE5C0DD9CE
:1008B00001F0004C4FEAC0024CEA5070B2F1004F18
:1008C00040EB830008BF20F00100704711F0804F1B
:1008D00021D113F13872BCBF01F00040704741F4E0
:1008E00080114FEA5252C2F11802C2F1200C10FAE4
:1008F0000CF320FA02F018BF40F001004FEAC123C8
:100900004FEAD32303FA0CFC40EA0C0023FA02F36B
:100910004FEA4303CCE77FEA625307D150EA013341
:100920001EBF4FF0FE4040F44000704701F0004011
:1009300040F0FE4040F40000704700BF80F00040EF
:1009400002E000BF81F0004142001FBF5FEA4103A7
:1009500092EA030F7FEA226C7FEA236C6AD04FEAA7
:100960001262D2EB1363C1BFD218414048404140EC
:10097000B8BF5B42192B88BF704710F0004F40F49E
:10098000000020F07F4018BF404211F0004F41F4BA
:10099000000121F07F4118BF494292EA030F3FD086
:1009A000A2F1010241FA03FC10EB0C00C3F1200399
:1009B00001FA03F100F0004302D5494260EB400028
:1009C000B0F5000F13D3B0F1807F06D340084FEA93
:1009D000310102F10102FE2A51D2B1F1004F40EB88
:1009E000C25008BF20F0010040EA030070474900F0
:1009F00040EB0000013A28BFB0F5000FEDD2B0FA8D
:100A000080FCACF1080CB2EB0C0200FA0CF0AABFAF
:100A100000EBC25052421843BCBFD040184370474D
:100A200092F0000F81F4000106BF80F40000013253
:100A3000013BB5E74FEA41037FEA226C18BF7FEA2A
:100A4000236C21D092EA030F04D092F0000F08BF6C
:100A50000846704790EA010F1CBF0020704712F053
:100A60007F4F04D1400028BF40F00040704712F192
:100A700000723CBF00F50000704700F0004343F0F7
:100A8000FE4040F4000070477FEA226216BF08462D
:100A90007FEA23630146420206BF5FEA412390EAF0
:100AA000010F40F4800070474FF0000304E000BFE6
:100AB00010F0004348BF40425FEA000C08BF704797
:100AC00043F0964301464FF000001CE050EA01025B
:100AD00008BF70474FF000030AE000BF50EA010270
:100AE00008BF704711F0004302D5404261EB41015D
:100AF0005FEA010C02BF84460146002043F0B64382
:100B000008BFA3F18053A3F50003BCFA8CF2083AA6
:100B1000A3EBC25310DB01FA02FC634400FA02FCAF
:100B2000C2F12002BCF1004F20FA02F243EB0200B6
:100B300008BF20F00100704702F1200201FA02FC18
:100B4000C2F1200250EA4C0021FA02F243EB02000B
:100B500008BF20EADC7070474FF0FF3C06E000BFA2
:100B60004FF0010C02E000BF4FF0010C4DF804CD36
:100B70004FEA40024FEA41037FEA226C18BF7FEA46
:100B8000236C11D001B052EA530C18BF90EA010F48
:100B900058BFB2EB030088BFC81738BF6FEAE170D7
:100BA00018BF40F0010070477FEA226C02D15FEA73
:100BB000402C05D17FEA236CE4D15FEA412CE1D0DF
:100BC0005DF8040B704700BF844608466146FFE7A6
:100BD0000FB5FFF7C9FF002848BF10F1000F0FBD88
:100BE0004DF808EDFFF7F4FF0CBF012000205DF881
:100BF00008FB00BF4DF808EDFFF7EAFF34BF012006
:100C000000205DF808FB00BF4DF808EDFFF7E0FF9E
:100C100094BF012000205DF808FB00BF4DF808EDEF
:100C2000FFF7D2FF94BF012000205DF808FB00BF52
:100C30004DF808EDFFF7C8FF34BF012000205DF834
:100C400008FB00BF53B94AB9002908BF00281CBFE0
:100C50004FF0FF314FF0FF3000F02CB8ADF1080C31
:100C60006DE904CE00F05BF8DDF804E0DDE9022375
:100C700004B07047D0B5FFF7A7FB0C4B0022064627
:100C80000F46FFF7F9FB00F017F80446FFF77AFB71
:100C9000074B0022FFF7F0FB02460B463046394671
:100CA000FFF732FA00F008F82146D0BD0000F03D11
:100CB0000000F041704700BF4A0011D212F5001247
:100CC00011D20DD56FF47873B3EB62520ED44FEAA4
:100CD000C12343F0004343EA505323FA02F0704724
:100CE0004FF00000704750EA013002D14FF0FF3062
:100CF00070474FF00000704710B500210446FFF721
:100D000079FF20B92046BDE81040FFF7B3BF04F1DA
:100D10000040FFF7AFFF404261EB410110BD2DE9FC
:100D2000F04786468C460846089E15467446194686
:100D3000002B40F0C2808542B2FA82F245D94AB116
:100D4000C2F1200300FA02FC2EFA03F3954043EAB5
:100D50000C0C94404FEA154EA8B2BCFBFEF8230CD5
:100D60000EFB18CC08FB00F943EA0C43994528D93F
:100D7000EB1808F1FF3704D2994502D9A8F1020710
:100D80002B44A3EB0903A4B2B3FBFEFC0EFB1C3304
:100D90000CFB00F044EA0344A04214D92C190CF1D6
:100DA000FF3304D2A04202D9ACF102032C44241A2E
:100DB00043EA07401EB1D440002334607360BDE8AD
:100DC000F0874746DDE76346F1E792BB431B01210D
:100DD0004FEA154EAFB2B3FBFEFC200C0EFB1C33EA
:100DE0000CFB07F840EA0343984562D9EB180CF175
:100DF000FF3004D2984502D9ACF102002B44A3EB9A
:100E00000803A4B2B3FBFEFC0EFB1C330CFB07F77C
:100E100044EA0344A7424ED92C190CF1FF3304D203
:100E2000A74202D9ACF102032C44E41B43EA004080
:100E3000C0E7C2F1200320FA03F1954090402EFA5A
:100E400003F303434FEA154EAFB2B1FBFEFC0EFBBA
:100E50001C10190C0CFB07F841EA0041884504FA04
:100E600002F422D969180CF1FF3004D2884502D966
:100E7000ACF102002944A1EB08019BB2B1FBFEFCDE
:100E80000EFB1C110CFB07F743EA01439F420ED9EE
:100E9000EB180CF1FF3104D29F4202D9ACF10201F0
:100EA0002B44DB1B41EA004192E76046E3E76146E1
:100EB000F7E76046A3E76346B7E7834206D916B96A
:100EC000002108467BE7C6E900E0F9E7B3FA83F7BB
:100ED0008FB9834201D3724508D8BEEB020460EBA0
:100EE000030301209C461EB9002168E73846FAE753
:100EF000C6E9004CF8E7C7F1200CBB4022FA0CF41D
:100F00001C432EFA0CF120FA0CF3B84001434FEACF
:100F100014490EFA07F5B3FBF9F81FFA84FE09FB32
:100F200018300B0C08FB0EFA43EA00439A4502FA0C
:100F300007F240D9E31808F1FF3004D29A4502D9EC
:100F4000A8F102002344A3EB0A0389B2B3FBF9F82A
:100F500009FB183308FB0EFE41EA03418E452CD9EC
:100F6000611808F1FF3304D28E4502D9A8F10203BB
:100F7000214443EA0040A0FB0298A1EB0E01414549
:100F8000CE46434602D306D14D4504D2B9EB020EFC
:100F900068EB04030138002EA6D0B5EB0E0261EB1E
:100FA000030101FA0CFC22FA07F34CEA0303F940AF
:100FB000C6E9003198E74046C5E74346D9E703460E
:100FC00011F8012B03F8012B002AF9D1704700001A
:100FD00008B53F4805F0B4FA3E4805F0C9FA3E4B63
:100FE0001868FFF7F1F938A3D3E90023FFF744FAB3
:100FF00002460B4600203949FFF768FB02460B46C4
:10100000374805F09DFA374B1868FFF7DDF92EA336
:10101000D3E90023FFF730FA02460B4600202F49A0
:10102000FFF754FB02460B462F4805F089FA2F4B79
:101030001868FFF7C9F924A3D3E90023FFF71CFAC6
:1010400002460B4600202549FFF740FB02460B46AF
:10105000274805F075FA274B1868FFF7B5F91AA36A
:10106000D3E90023FFF708FA02460B4600201B498C
:10107000FFF72CFB0B4602461F4805F061FA0A20D9
:1010800005F070FA1D491E4805F05AFA0A2005F0CD
:1010900069FA1C4805F06CFA1B4805F051FA1B4828
:1010A00005F04EFA1A4805F04BFA1A4805F048FACE
:1010B000194805F045FA194805F05AFABDE8084004
:1010C0001749184805F03CBAFCA9F1D24D62503FCF
:1010D0008D84000095840000940100200000F03F02
:1010E0000C8500009001002023850000880100206D
:1010F0003F8500008C01002057850000A5110020CD
:1011000079850000A98600007E8500009385000097
:10111000178600004386000082860000A886000033
:10112000E1110020218700002DE9F04FBC4C95B063
:10113000014600AF2046FFF742FF23782F2B40F0F7
:10114000CF816178662940F0A58094F802A0AAF1C9
:101150006103DBB2142B00F2C381B24E1E4116F0C4
:10116000010640F0BD81204606F04EFD0D2183466C
:10117000204606F049FDA0EB0B056B1D23F007038D
:10118000E946ADEB030DAA1E0BF1020168466D4462
:1011900006F047FDBAF1750FE84605F8016C1AD163
:1011A000684606F01EFDFFF7FDF89BA3D3E9002378
:1011B000FFF762F902460B4600209B49FFF786FACB
:1011C000FFF76CFB994B1860FFF7FEF802460B46E1
:1011D000974805F0B5F9A378622B1AD1404606F07E
:1011E00000FDFFF7DFF88CA3D3E90023FFF744F9F4
:1011F00002460B4600208C49FFF768FAFFF74EFBCA
:101200008C4B1860FFF7E0F802460B468A4805F061
:1012100097F9A378612B1AD1404606F0E2FCFFF75C
:10122000C1F87DA3D3E90023FFF726F902460B4658
:1012300000207D49FFF74AFAFFF730FB7F4B18602B
:10124000FFF7C2F802460B467D4805F079F9A3780E
:101250006F2B1AD1404606F0C4FCFFF7A3F86EA32B
:10126000D3E90023FFF708F902460B4600206E4938
:10127000FFF72CFAFFF712FB724B1860FFF7A4F888
:1012800002460B46704805F05BF9CD465437BD4623
:10129000BDE8F08F62296AD1A378A3F13002092A50
:1012A00000F21E81313B032B5DD8DFE803F00223FF
:1012B0003649664B3A4603F110063D4618685968B0
:1012C000144603C40833B3422246F7D11B78237077
:1012D0005F4B93F900205F4907F1140005F068F9AE
:1012E00007F11401284606F080FC29465A48FFF70A
:1012F00066FECBE7594B3A4603F110063D461868A7
:101300005968144603C40833B3422246F7D11B7808
:1013100023704F4B93F90120DDE7514B3A4603F11F
:1013200010063D4618685968144603C40833B34292
:101330002246F7D11B782370454B93F90220CAE768
:10134000484B3A4603F110063D4618685968144662
:1013500003C40833B3422246F7D11B7823703C4BB9
:1013600093F90320B7E7404805F0EAF88EE76F29C4
:1013700040F08E80A378A3F13002092A00F2B080F9
:10138000E2785F2A40F0AC802279303A012A00F2FC
:10139000A780313B032BE6D8DFE803F00214212EAF
:1013A00032484FF0FF324FF0FF3305F075FC2379E0
:1013B0002F4A3048303B137005F06CFC2B4805F089
:1013C00069FC63E729484FF0FF324FF0FF3305F027
:1013D00063FC2379284A2948303B1370ECE7234803
:1013E0004FF0FF324FF0FF3305F056FC2379244ACB
:1013F0002448303B1370DFE71C484FF0FF324FF0BA
:10140000FF3305F049FC23791F4A2048303B137015
:10141000D2E700BFAFF30080FCA9F1D24D62503F8C
:10142000E1110020FCBFEFFF0000F03F940100201D
:101430009187000090010020A5870000880100200E
:10144000BC8700008C010020CF87000008880000C6
:1014500094110020E3870000A511002019880000E6
:101460002A8800003B880000E6870000CC080020A6
:10147000A4110020BC080020A3110020AC0800200B
:10148000A21100209C080020A11100208C0800203F
:10149000612925D1134B3A4603F108063D461868E9
:1014A0005968144603C40833B3422246F7D118687A
:1014B00099889B792060A180A3710B484FF0FF327F
:1014C0004FF0FF3305F0E8FB084B094993F908207A
:1014D00007F1140005F06CF8034805F0DBFBFFE6AC
:1014E000044841E74C880000DC08002094110020EB
:1014F00035840000F7870000F8B5224F386806F001
:1015000094F920B92048BDE8F84005F032BC3846CF
:1015100005F05FFB002801DA1C48F4E71C4E306838
:1015200006F083F908B91B48EDE7304605F051FB9A
:10153000002801DA1848E6E7184D286806F075F922
:1015400008B91748DFE7284605F043FB0028E3DB2E
:10155000144C206806F069F90028F2D0204605F006
:1015600038FB0028D8DB384605F04DFB304605F047
:101570004AFB284605F047FB2046BDE8F84005F049
:1015800042BB00BF800100209C810000C0810000A0
:1015900078010020DC810000008200007001002042
:1015A0001C8200006801002010B5094B00241C704B
:1015B0005C709C70DC701C715C711C72FFF79CFF8E
:1015C00000F00CFB00F03CF800F01CFA204610BDC7
:1015D0009411002008B5034805F0CBFB4FF0FF3015
:1015E00008BD00BF408200002DE9F743DFF84480CA
:1015F000114F124DD8F81060042417F8019BD8F849
:1016000008300C485B6801A9984748B9019B3268CB
:101610005A40012303FA09F31A4214BF01200020A3
:10162000B0FA80F04009013C05F8010BE5D103B0A8
:10163000BDE8F083E47D0000608400009D1100207F
:101640002DE9F047334805F094FB334805F091FB52
:10165000324806F0EAF820B9BDE8F047304805F016
:1016600088BB2E4F2F48304EDFF8C0A005F081FB1D
:10167000D7F80890B046002418F8015B396927486C
:101680000B680122AA4023EA02030B60D9F800305C
:101690005246294698470134031E2A46214604DA59
:1016A0002348BDE8F04705F064BB224805F061FB24
:1016B000042CE1D1BD68DFF86490002416F8017BAA
:1016C000D5F818800134B8F1000F0CD04FF0C0638A
:1016D0004FF0A07239464846C047031E06DA164846
:1016E0003A462146DDE76FF05703F8E7042CE5D1D1
:1016F000124805F03EFB1249124B4B60124B8B60B7
:10170000EB6923B1BDE8F047044801221847BDE862
:10171000F08700BF72820000C0820000E47D0000FC
:101720003583000057830000608400001000010032
:1017300077830000B9830000EC8300003884000048
:1017400080080020E91500000018000370B5064E5F
:10175000064C074D4FF0FF334FF0FF32304605F097
:1017600070FA2B782371F5E7BC0800209411002053
:10177000A411002070B5064E064C074D4FF0FF3304
:101780004FF0FF32304605F05CFA2B786371F5E7D5
:10179000AC08002094110020A311002070B5064E63
:1017A000064C074D4FF0FF334FF0FF32304605F047
:1017B00048FA2B78A371F5E79C08002094110020CB
:1017C000A211002070B5064E064C074D4FF0FF33B6
:1017D0004FF0FF32304605F034FA2B78E371F5E72D
:1017E0008C08002094110020A11100202DE9F04167
:1017F000174E184FDFF8608005F012FAFFF76EF908
:101800003168FFF7A1F8FFF777FA04460D4698F81C
:1018100000303B7098F801307B7098F80230BB7054
:1018200098F80330FB7005F0FBF9A042A941EEDA0D
:10183000201A05F01CFA29462046FFF74FF93168B7
:10184000FFF782F8FFF758FA04460D46DFE700BFBE
:1018500090010020941100209D11002070B505F02A
:10186000DFF9FFF73BF90B4E3168FFF76DF8FFF733
:1018700043FA04460D46FFF7ABFB05F0D1F9A04251
:10188000A941F8DA201A05F0F2F920462946FFF7B7
:1018900025F9E9E7940100202DE9F0471E4EDFF815
:1018A0007C901F4FDFF87C8005F0BAF9FFF716F93E
:1018B0003168FFF749F8FFF71FFA04460D46FFF7B6
:1018C00089FE014620B3484605F053FA4FF0000A5E
:1018D0004FF0FF324FF0FF33384605F0B2F988F889
:1018E00008A0384604F0D6F905F09AF9A042A941BB
:1018F000E5DA201A05F0BBF929462046FFF7EEF895
:101900003168FFF721F8FFF7F7F904460D46D6E7EF
:101910006FF03B0ADCE700BF940100206484000004
:10192000DC080020941100202DE9F041DFF8B88098
:101930002E4F2F4E05F074F9FFF7D0F8D8F80010AD
:10194000FFF702F8FFF7D8F904460D464FF0FF32D3
:101950004FF0FF33384605F074F996F90410012969
:1019600003D1244805F06FF901E00029F9D096F978
:101970000510012903D1204805F065F901E000298F
:10198000F9D0384604F086F996F90610012903D1FA
:101990001A4805F058F901E00029F9D0384604F05A
:1019A00079F996F90710012903D1154805F04BF98B
:1019B00001E00029F9D0384604F06CF905F030F95F
:1019C000A042A941C2DA201A05F051F92946204661
:1019D000FFF784F8D8F80010FEF7B6FFFFF78CF990
:1019E00004460D46B2E700BF8C010020CC08002061
:1019F0009411002080010020780100207001002057
:101A000068010020F0B54F4889B0012105F016F9B2
:101A10004D48002105F012F94C48002105F00EF95F
:101A20004B48002105F00AF94A48002105F006F963
:101A30004948002105F002F900260027002401256D
:101A4000CDE90667CDE90354CDE90144434B444950
:101A500000944FF48062434803F0D6FC424B186078
:101A6000424B43490094CDE90667CDE90354CDE9E3
:101A700001444FF480623F4803F0C6FC3E4B1860BF
:101A80003E4B3F490094CDE90667CDE90354CDE9CB
:101A900001444FF480623B4803F0B6FC3A4B1860B7
:101AA0003A4B3B490094CDE90667CDE90354CDE9B3
:101AB00001444FF48062374803F0A6FC364B1860AF
:101AC000364B37490094CDE90667CDE90354CDE99B
:101AD00001444FF48062334803F096FC324B1860A7
:101AE000324B33490094CDE90667CDE90354CDE983
:101AF00001444FF480622F4803F086FC2E4B18609F
:101B00002E4B2F490094CDE90667CDE90354CDE96A
:101B100001444FF480622B4803F076FC2A4B186096
:101B20002A4B2B490094CDE90667CDE90354CDE952
:101B300001444FF48062274803F066FC264B18608E
:101B400009B0F0BDDC080020CC080020BC08002053
:101B5000AC0800209C0800208C0800205D180000C4
:101B600040340020C006002008090020ED170000C6
:101B70000030002040060020040900202919000040
:101B8000C02B0020C005002000090020991800008B
:101B90008016002040030020EC0800204D170000B4
:101BA0008027002040050020FC0800207517000059
:101BB00040230020C0040020F80800209D170000EA
:101BC000001F002040040020F4080020C51700007A
:101BD000C01A0020C0030020F008002010B5144CEB
:101BE000206805F022FE28B9124805F0C2F84FF02F
:101BF000FF3010BD206883681B6843B10E49002286
:101C00009847014630B10D4805F0B3F8EFE76FF0A3
:101C10005701F8E7206883680949DC683C224FF4E3
:101C20007A73A04701460028E3D00648ECE700BFDE
:101C30009801002033870000491C000066870000DF
:101C40001D120020FB88000070B50B780E46062B95
:101C500058D8DFE803F004090B3B3D3F55002A4804
:101C6000BDE8704005F085B82848F9E7284C2948B8
:101C7000294D05F07EF8D6E902322068274928442C
:101C8000194405F098FF2368EB5C0D2B236808D1FD
:101C90002B44002628465E70FFF746FA2E70266019
:101CA00070BDEB5C7F2B23680AD1002BF8DD236825
:101CB0002B44002203F8012C2368013B2360EFE74B
:101CC0001D4400236B7023680133F7E71448C7E70E
:101CD0001448C5E7144805F04CF8144B186883689D
:101CE0000E49DC683C224FF47A73A0470146002875
:101CF000D6D00F4805F03DF84FF0FF3004F012FC4D
:101D00000C48ADE70C48ABE75B8800007288000028
:101D10000C0900208C880000E11100201D12002019
:101D2000A2880000C0880000DF8800009801002021
:101D3000FA880000238900003D890000014B1B68E0
:101D4000184700BF9C01002030B585B004460D4601
:101D500010220021684605F03CFF02238DF8023076
:101D60002A46044B01932146684604F0BFFC05B0A7
:101D700030BD00BF3D1D0000014B1860704700BF23
:101D80009C01002080B505460E461746984603F094
:101D9000C5FE034605F0D4FFDFF81890044649F865
:101DA0000030424630463946A84754F8090000F052
:101DB00023FC00BF0800000008B504464FF02002D5
:101DC000EFF3118382F31288BFF36F8F02F0F4FAFE
:101DD000204600F0BBFB034804F0CBFF00F034FDCD
:101DE000FCE700BF558900002DE9F047058B04464C
:101DF0002807904611D4022905F0070540F0CD8050
:101E0000204604F0C3FF78B10138218B042811D893
:101E1000DFE800F0C3106D85950001290CBF45F087
:101E2000100545F02005258388F31188BFF36F8FD7
:101E3000BDE8F08701F0070AAA4500F0A680002758
:101E4000B9463E46A368002B00F0BD8041F0080172
:101E5000218388F31188BFF36F8FA168002900F0F8
:101E6000BB800D68002900F0B780D1F804803346AC
:101E700052462046C047002D76D02B6829461D4685
:101E8000F0E701F007035A1F012A1BD8002221F0B6
:101E90000701062B276889B2C4E9002209D13B4615
:101EA00003E0628B013262831B68002BF9D141F0A1
:101EB00002012183204604F069FF00287BD041F015
:101EC000200177E0042B0AD121F0070189B2218398
:101ED000204604F05BFF10B141F020012183218BEB
:101EE00001F0070AAA4550D00027B946AAE723699E
:101EF00021F0070141F00601062DD3F8009021835F
:101F00002DD1B9F1000F40D041F00801218388F3B1
:101F10001188BFF36F8F3A492046C84729E021F066
:101F20000701236941F0040189B2042DD3F804901C
:101F30002183E6D000273E464FF0040A82E721F0D5
:101F40000701236941F0050189B2052DD3F80890F6
:101F50002183D6D000273E464FF0050A72E70027BE
:101F60003E464FF0060A6DE72B4687E7B9F1000FB2
:101F7000D1D14FF02003EFF3118883F31288BFF320
:101F80006F8F238B23F008032383258BEA062ED53E
:101F900025F01003238305F007056669218B002EC9
:101FA000BFF66FAF00232768C4E9003321F00701B3
:101FB00041F001012183218B01F0070AAA454FF06E
:101FC00000097FF43FAF002F9BD041F0080121832F
:101FD00088F31188BFF36F8F002FC7D03D68394653
:101FE00033465246204604F0FDFE2F46F4E7AB068A
:101FF0007FF51AAF25F02003238305F00705FFE6E0
:10200000116E0000014B036000207047A87F0000A4
:10201000014804F0DFB800BFA87F000038B50446CF
:1020200018B90F4B0F485B6898476168B1F5683F76
:1020300010D0B1F5680F0DD00B4DA9420AD011F4A4
:102040006861206807D00146084805F021FC00239C
:102050002360656038BD142205F0BBFDF9E700BFC1
:10206000800200207E8900002C5F5CA9100E0020F9
:1020700008B520B34368B3F5683F10D10122036867
:10208000BFF35B8F53E8001F002903D143E8002012
:102090000028F7D1BFF35B8F0DD1002008BD094A9E
:1020A00093420AD000684FF0FF324FF0FF3303F045
:1020B00077FD0028F1D00448F0E70448EEE76FF41C
:1020C000E040EBE72C5F5CA9E98FFFFFEA8FFFFFA1
:1020D00008B5D8B14368B3F5683F10D10022036852
:1020E000BFF35B8F53E8001F012903D143E80020B1
:1020F0000028F7D1BFF35B8F0BD1002008BD074A42
:10210000934208D0006803F00FFDF6E76FF4E0405B
:10211000F4E70348F2E70348F0E700BF2C5F5CA94F
:10212000E98FFFFFEA8FFFFF10B5044618B91D4B7A
:102130001D485B6898476368B3F5683F2FD0B3F5D7
:10214000680F2CD0194A934219D1236803BB184851
:102150004FF0FF324FF0FF33214603F0DFF808B9AC
:1021600023681BB90F4B13485B68984720681422FB
:10217000002105F02EFD4FF46863636008E0B3F5BD
:10218000683F0DD83A2B03D040F6BA629342DED1B5
:10219000206805F0B8FC636843F03A03636010BD43
:1021A000054AF3E7800200207E8900002C5F5CA9CD
:1021B000100E0020A48900003A00003A08B5064934
:1021C00006484023142205F055FBBDE808400449A9
:1021D000044804F071B800BF10090020100E002060
:1021E000B07F0000C47F000030BFFFF7FDBF00BF1D
:1021F0002DE9F0410B4EDFF8308006EB0807CC1BD1
:10220000054632460949204605F0D5FCA01942464C
:102210000021083C05F0DDFC2C6707F10800BDE853
:10222000F08100BF0000000008000000A07F000057
:10223000044B99685869884203D003494FF0805293
:102240000A6070478C0F002004ED00E070B5264B4B
:1022500015469A6A12F0100F9A6A14BF11241024BE
:1022600012F0080F9A6A18BF1224920706460AD580
:10227000586B9A6A140634D519B19A6A22F0800212
:102280009A62132401E06FF01500174B9A6A12F05E
:10229000010F9A6A18BF142412F0200F9A6A18BF0F
:1022A0001524D20602D49B6A9B070AD50E4B5B68A5
:1022B000190506D5314600F08FFA10B180F3098870
:1022C0000224094B9A6A920642BF5A6A22F40052CB
:1022D0005A629A6A42F0FF029A6200232B702046EB
:1022E00070BD6FF01500CCE700ED00E0134B9A6A6B
:1022F00012F0007F9A6A14BF1E201D2012F0807F0A
:102300009A6A18BF1F2012F4002F9A6A18BF212062
:1023100012F4802F9A6A18BF222012F4003F9A6AA2
:1023200018BF232012F4803F9A6A6FEA02426FEAD4
:1023300012429A6218BF2420704700BF00ED00E0EF
:1023400010B5194B0246986A9C6A10F4805F14BF5E
:102350001720162014F4006F9C6A18BF1820A405DB
:1023600009D5986B986A000404D51AB19A6A22F4C8
:1023700000429A6219200C4B9A6A12F4806F9A6A92
:1023800018BF1A20D2050CD49B6A13F4005F18BF43
:102390001C20054A936A43F47F43936200230B7029
:1023A00010BD1B20F5E700BF00ED00E0F0B5484B85
:1023B0005B688BB00446C3F30803002585F31188DE
:1023C000BFF36F8F02F07F40B0F17F4F11D102F069
:1023D0000C0008280DD010074CBF0C460125002228
:1023E000033B8DF80720032B05D8DFE803F02463B7
:1023F00067602C46F3E700239DF80720CAB902AEB8
:1024000004F1200720686168324603C20834BC42E8
:102410001646F7D1099A002D54D0C2F3080121B90C
:102420006FEA52226FEA4222099202A9184604F08A
:102430008BFD0BB0F0BD264BDA6A9107DBD4DA6A6C
:10244000002AD8DBDA6A5200D5D55A69A16942F46C
:1024500080725A61BFF34F8FBFF36F8F5A6931F8A3
:10246000021C22F480725A61BFF34F8FBFF36F8F4B
:102470004DF6027291420AD09A6AD2B24AB10DF177
:10248000070201212046FFF7E1FE0346B4E7236877
:10249000B2E79A6A12F47F4F05D00DF107010120CF
:1024A000FFF74EFFF1E79B6AB3F5803FA3D3FFF739
:1024B0001DFFEAE70DF107020021E3E70DF1070137
:1024C0000020EDE722F4FF7222F00102ACE700BF2A
:1024D00000ED00E0024A536943F010035361704776
:1024E00000ED00E0EFF30880EFF3098101B57246DB
:1024F000FFF75CFF01BD00BF002080F31488BFF32D
:102500006F8F00F087FB00200D490860BFF34F8FED
:102510000C4880F3088800F03DF8202080F31188F3
:1025200009484FF40461401880F30988EFF31480E0
:102530000221084380F31488BFF36F8F00F014F971
:1025400094ED00E04046002080380020BFF34F8F1C
:102550000549064BCA6802F4E0621343CB60BFF33F
:102560004F8F00BFFDE700BF00ED00E00400FA055B
:102570000749D1F890200023C2F30722184693425E
:1025800000DB7047C1F89830C1F8A0000133F6E7CE
:1025900000ED00E008B572B6002383F31388FFF75F
:1025A000E7FF144B4FF0FF32C3F88020C3F88420BC
:1025B000C3F88820C3F88C20C3F89020C3F8942077
:1025C000C3F89820C3F89C20C3F88021C3F8842165
:1025D000C3F88821C3F88C21C3F89021C3F8942153
:1025E000C3F89821C3F89C2162B6BFF34F8FBFF3A5
:1025F0006F8F08BD00E100E0084B9B6883420BD160
:10260000EFF3058343B1064B5A6842F080525A609B
:102610005A6A22F400425A6205F040BA8C0F002038
:1026200000ED00E0094A93686FF00A0199670849D4
:1026300058674B6843F080534B60002383F3118845
:10264000BFF36F8F9368986F704700BF8C0F0020A7
:1026500000ED00E015498A684FF030001044EFF3B8
:10266000098C80E8F01F202080F31288BFF36F8F61
:102670000F4F4FF000664A698A603E604FF0700469
:10268000141920680B4C2060506F0023536780F3AF
:10269000118804B5104600F01DF9BDE8044002F1B0
:1026A000300090E8F01F8CF3098870478C0F0020F1
:1026B00004ED00E02C0E00201EF0040F0CBFEFF321
:1026C0000880EFF30980816911F8021C0229FFD00C
:1026D00001B504F03BFC01BD40B2002807DB044A11
:1026E0004109012300F01F00834042F82130704768
:1026F00000E100E040B200280CDB4309064900F08D
:102700001F0020330122824041F82320BFF34F8F66
:10271000BFF36F8F704700BF00E100E0054B420937
:1027200000F01F0053F82220012303FA00F01040AC
:10273000704700BF00E100E040B20028A8BF00F1F0
:10274000604001F10101B8BF064B4FEA4111ACBF37
:1027500000F5614000F00F00C9B2B4BF195480F811
:102760000013704714ED00E00B4A08B50B4B22F044
:102770007F029A60BFF34F8FBFF36F8FD3F888202B
:1027800022F47002C3F8882002F0F6FC03F0CEFABF
:1027900000F074F802F042FD0000000000ED00E0DF
:1027A00042F8203C009B42F81C3C0A49019B42F83D
:1027B000183C029B42F8143C21F001014FF0807359
:1027C00042F8043C42F8081C0023203A02654367A3
:1027D000704700BF851D0000094A0346906870B12C
:1027E00013F1160F006E05D0A0F140029A4205D8F1
:1027F000834203D2814228BF0020704700207047E7
:102800008C0F002008B514460A4A0B4B9060026FEB
:102810001A600D4600F05EF8204685F30988002115
:1028200063B681F31188BFF36F8F00220023FFF797
:10283000A9FA00BF8C0F00202C0E002001491022A5
:102840000A60704710ED00E072B6404080F31188D6
:10285000BFF36F8FBFF34F8F30BF62B6BFF36F8F81
:10286000704700BF72B6494081F31188BFF34F8FA4
:1028700020BF80F3118862B6704700BF0448002370
:102880002021C2180133302B82F80013F9D1704790
:1028900000E100E001B5EFF30580A0F110004FEA80
:1028A000C0000449014409C99847BDE801400249F4
:1028B00008470000207E000031220000024B034A3E
:1028C0000348012100F076B8000004200000002039
:1028D000D47F0000026E054B403A1A60044A402142
:1028E000C3E901121846012100F06EB8300E002035
:1028F00000000B15084AC2F898000B6823F01F036C
:10290000034343F01003C2F89C308B6843F001038B
:10291000C2F8A030704700BF00ED00E02DE9F043A1
:10292000DFF8608085B00E461F4604464FF0000970
:10293000B14523DA6068D8B13FB1411E08421BD1CE
:102940001F2819D92368194216D12368019304F06E
:102950000CFBA36803430393D8F89050C5F30725F5
:10296000D0B2013DA84207D801A9FFF7C3FF421C1E
:1029700009F101090C34DBE76FF01502104605B0D0
:10298000BDE8F08300ED00E0044B0522C3F894207D
:10299000BFF34F8FBFF36F8F704700BF00ED00E0B4
:1029A000BFF35F8F024B0022C3F89420704700BF33
:1029B00000ED00E010B5034C01232278FFF7AEFFD5
:1029C000207010BD5912002008B50B4A0023127860
:1029D000FFF7A4FF10F1160F07D0084A0021D2F824
:1029E0009030C3F30723984200DB08BDC2F898007B
:1029F000C2F8A0100130F2E75912002000ED00E00B
:102A00002DE9FF41524B534CD3F890302568C3F366
:102A100007239D4200F29980FFF7C2FF00200C2699
:102A2000854218D14C4C4D4F25706846FFF7EAFAA5
:102A3000DFF81C8106460025AE4213D123784449B5
:102A40000020D1F89020C2F30722934277DBFFF7F2
:102A50009BFF00201CE0616806FB0011FFF74AFFA6
:102A60000130DDE7009800EB05114FEA051CCB684B
:102A70003B40B3F5000F50D00DD8B3F5001F36D052
:102A8000B3F5800F3ED0B3F5801F13D06FF0150063
:102A900004B0BDE8F081B3F1807F47D0B3F1007F8F
:102AA000F4D150F80C3088684A6804F05EFA40F4BB
:102AB000802009E050F80C3088684A6804F055FA24
:102AC00040F0885040F43020CDE901230390D8F83D
:102AD00090302078C3F30723013B9842D6D801A950
:102AE000FFF708FF2378013323700135A4E750F87E
:102AF0000C3088684A6804F038FA40F0885040F496
:102B00000020E1E750F80C3088684A6804F02DFA9C
:102B100040F0E06040F40030D6E750F80C308868B0
:102B20004A6804F022FA40F08270CDE750F80C3089
:102B300088684A6804F019FA40F08870C4E7C1F860
:102B40009830C1F8A00001337BE74FF0FF309FE7DA
:102B500000ED00E0E07F0000591200200000F0FFCF
:102B600008B5024B1B689847002008BD3C0E0020AA
:102B7000034B044A1860937843F002039370704744
:102B80003C0E0020C001002008B5024804F0F1F816
:102B9000FEE700BFE089000008B50649064821F0BD
:102BA0000701C1F1005202F5802204F0A3F80020D1
:102BB00008BD00BF87460020400E00200E4A0123BA
:102BC000C2F840354FF080424FF08051C2F878355E
:102BD000D1F83001082808D1D1F83411052904D8DA
:102BE0000648415C09B1C2F838364FF080430122F3
:102BF000C3F880250020704700E00140E68900000E
:102C000020B1034B800143F001031847704700BF18
:102C1000A07F000001F002BC054B0122C3F8002593
:102C200090F8761009B1DA6070471A605A60704700
:102C300000700040F0B50B7903F01F02072A20D87E
:102C40000C780B2C1DD8DFE804F0070707071C06DB
:102C50001C1C1F211C230424487803281AD0042894
:102C60000FD10026488844F20A05A84241D013D863
:102C700044F20305A84238D044F20505A84236D0F4
:102C8000B8B36FF015002FE00524E5E70624E3E76D
:102C90000724E1E70126E5E744F21405A8422AD01B
:102CA00044F22805A84228D044F20F05A842E8D1F2
:102CB00003208D794F7912491144C3F3401381F8F1
:102CC00090701B05110143EA042301F1804101F5D5
:102CD000E04143EA063343EA00430020C1F81835D7
:102CE000C1F81455C1F81005F0BD0020E1E701203E
:102CF000DFE70220DDE70420DBE70520D9E700BF9E
:102D000000000020F7B50D464FF0FF3356484FF056
:102D1000FF3202F0E3FF6E68731EFE2B3CD80023E7
:102D20005248534F1A4626FA03F111F0010126D0FA
:102D300017F803C0BCF1000F2ED000EB031E6C7C13
:102D4000DEF81815003C18BF012421F0807141EA1B
:102D50000461CEF8181503F151010901013240F860
:102D600001C0D2B20133082BDDD12B7C083B062BEE
:102D700012D8DFE803F009111D1119111B0003F12E
:102D8000510424010151EDE700233849012AC1F81B
:102D9000F0356B7C0ED97BB16FF01504324802F030
:102DA00079FF204603B0F0BD0223EEE70323ECE7F2
:102DB0000123EAE7082BEFD8C1F8F435296853005E
:102DC00011B1898901FB0333E968994249D3274B43
:102DD000A968C3F82C162F46C3F830260FCF254C10
:102DE00004F164060FC63B683360002626662B6834
:102DF000274693B30FCB04F1780585E80F0065668D
:102E0000A4F8886048B3BFF35B8F57E8003F47E8FA
:102E10000062002AF9D1BFF35B8F1749A56F174AEB
:102E20004FF400400F463146E5FB00710023384661
:102E3000FDF708FF0022CDE90001002304F108009E
:102E400003F040F90E484FF0FF324FF0FF3302F02D
:102E500045FF00B12066246EA0E70648FFF7DCFEC0
:102E6000F0E76FF00B0499E740000020007000408D
:102E700090000020000000203F420F0040420F0061
:102E80005000002010B50E4B0024C3F80441D3F8C5
:102E90000421C3F81041D3F810211222C3F80423EF
:102EA0000720FFF719FC224601210720FFF744FC09
:102EB0000448836C13B9403002F0ECFE002010BDD2
:102EC000007000400000002038B52E4BD3F80421DC
:102ED000002A49D00022C3F80421D3F804112A4C57
:102EE00001219960C3F80025636E2546BBB3E36FEB
:102EF000B4F8882033B104F164019847012814D054
:102F0000022827D0B4F88830B4F884209A4221D916
:102F10000133A4F888301B4BD3F82C26D3F8341691
:102F200089B202EB4102C3F82C26A36F23B9BDE896
:102F300038401548FFF770BEBFF35B8F55E8003F80
:102F40005A1E45E800210029F8D1BFF35B8F012B01
:102F5000EDDC38BDA36F13B10C4804F00FFE0C4834
:102F6000BDE8384002F096BED3F810110029F0D029
:102F7000C3F81021D3F8102101229A601A605A6018
:102F8000E7E700BF007000400000002008000020BC
:102F900050000020084B70B5C31A0D4607499B101E
:102FA000044659430648402204F027F82B460146C0
:102FB0002046BDE870401847600E0020B76DDBB6B4
:102FC000BC7D000073B50C4C0C4A4023041B0093DD
:102FD0000D460B460A49A41061430646094804F011
:102FE00039F8011E05DA30462B4602B0BDE87040C4
:102FF000184702B070BD00BF600E0020C170000015
:10300000B76DDBB6BC7D0000002270B5012104461F
:103010001046FFF791FB0F4801F08AFB0E4B9842D8
:1030200015D101F095FB26690C49304603F0FEFEF0
:1030300000280BDB012535642469084904F11C00D4
:1030400003F0F4FE002801DBE564002070BD6FF0A2
:103050000400FBE7953000000000AD0B108000007D
:1030600070B501460C2309484B43C418D4E90E56E9
:10307000403300221844A26303F0ACFF2DB1324666
:103080002B460348BDE87040184770BD600E002015
:10309000BC7D000010B1012804D07047034B1B6CAD
:1030A0005B0701D1FFF7DCBF704700BF600E002057
:1030B00008B54FF02003EFF3118183F31288BFF3BB
:1030C0006F8F124A136843F002001060DA0708D4C9
:1030D00081F31188BFF36F8F0120BDE8084001F034
:1030E00049BB4FF08043D3F80C24D3F80C34DB07F2
:1030F000EED5074803F06EFF81F31188BFF36F8FA1
:103100000020BDE80840FFF7ABBF00BFB00E0020B5
:10311000A00E00201FB500220123CDE90223094A99
:10312000CDF800D06B46CDF804D003F0C2FF0028E4
:1031300005DB4FF480420023684602F0CFFD05B066
:103140005DF804FBDF70000010B54FF02003EFF3D3
:10315000118483F31288BFF36F8F074A136823F03B
:103160000201DB07116002D4012004F0D0FA84F3DD
:103170001188BFF36F8F10BDB00E00202DE9F04114
:103180003849BFF35B8F0746012251E8003F41E811
:1031900000200028F9D1BFF35B8F33B9324933489F
:1031A0004B60CB608A6003F054FE7B1E012B2BD852
:1031B000012F07D14FF08043D3F81C3403F00303F1
:1031C000012B21D004F08AFB0546F8B9284B1B7867
:1031D000E3B14FF080430222C3F808230646DFF82C
:1031E00094804FF08044D4F81824D4F81834D203D3
:1031F00016D503F00303012B01D0012F10D15DB3CD
:1032000086F31188BFF36F8FBDE8F0814FF0200384
:10321000EFF3118683F31288BFF36F8F0125DEE78A
:10322000ADB13046FFF71EFBD4F81835002BDAD1CC
:10323000D4F80421002AD6D0C4F80431D4F80431DB
:103240000123C4F81835C8F88031A360CBE700210A
:10325000212002F045FCE7E74FF080430222C3F84B
:103260000423D1E75C0E00204C0E00207C0E0020D1
:103270007416002000E100E008B5074804F0D5FA14
:1032800038B10648FFF774FC0448FEF775FD0020CE
:1032900008BD6FF01200FBE7F87D0000A1320000CE
:1032A0000A2838B5074D044604D1AB680D21DB6907
:1032B00028469847AB680348DB69E1B29847204647
:1032C00038BD00BFF87D0000F0B54068057B01F017
:1032D0001F0444EA4514056987B0002D64D0B2F597
:1032E000001F00F1100506D12146284604F08FFA90
:1032F000002007B0F0BD01AE0027B2F5800F0197A6
:10330000776039D1B3F1007F14BF052304238DF812
:1033100004300023CDE904630393836823FA01F1A9
:1033200011F001011AD1B2F1A07F17D104F01F03EF
:10333000620903F5E0732AD0012A3BD11F4A52F8F3
:103340002330DB070AD40DF1030632462146284616
:1033500001F0EEFC1A4B98421CD0029603AA2146BB
:10336000284601F0A7FB174B984220D101222146A5
:10337000284601F045FDBBE7B3F1C06F05D0B3F1BE
:10338000007F14BF01230223C1E70323BFE74FF0EF
:10339000A042D4E73146284601F02CFD094B984263
:1033A000DBD06FF00B00A4E76FF08500A1E76FF0B2
:1033B00015009EE751F82330FFDE00BF00030050E8
:1033C0000400AD0B0000AD0B38B545682B69B3B1F7
:1033D0001035284601F0FEFC044680B90146284617
:1033E00001F0C0FC084B98420BD108492246284600
:1033F00001F098FC224605210620FFF79DF90020E8
:1034000038BD6FF00400FBE70000AD0B1134000085
:10341000420970B5034602D0012A17D070BD0D4E87
:10342000326951680029F9D003F01F0301250C68A7
:103430009D400029F2D08A682A4002D04B6830466D
:1034400098472CB1236821461C46F2E7024EE7E775
:103450002346F8E7E47D0000D07D00002DE9F0432D
:10346000466840F20635D006337B87B002EA050590
:1034700054BFC2F34010032001F01F07B5F5837F4E
:10348000144647EA43178DF8030044D00FD8062DA1
:1034900018D007D8B5B1022D3FD06FF0150007B096
:1034A000BDE8F083B5F5807FF7D101250AE040F251
:1034B0000222954233D0B5F5407F32D0B5F5007F7A
:1034C000EBD1022522032ED5726801238B40C2F86E
:1034D0000835326992BB07F01F037F092BD0012FFB
:1034E00079D13F4A02EB830284F48033D2F800178B
:1034F000C3F30043C4F3404444EA430421F4E161CC
:1035000044EA800421F0070144EA05230B43C2F892
:1035100000370020C3E70725D4E70425D2E70525B7
:10352000D0E70325CEE7630341BF012372688B40D8
:10353000C2F80C35CDE74FF0A042D3E710360DF1BD
:1035400002023946304601F0F3FB14F4403F804656
:103550000CD13946304604F058F9224B9845D8D161
:103560009DF80210304601F03FFCD2E701AB4FF06E
:10357000000903AA39463046CDE90439CDE901995D
:10358000CDF80C9001F096FA164B984285D114F4C0
:10359000003315D09DF803308DF80E3084F480345C
:1035A000C4F300444B4603AA394630468DF80C500C
:1035B0008DF80D4001F038FB0A4B9842CDD06CE7F6
:1035C000CDE9043303AA0DF10303394630460393D2
:1035D00001F070FAF0E703F5E07352F82330FFDEF4
:1035E000000300500000AD0B036803F01F025B09ED
:1035F000026004D0012B034818BF002070474FF031
:10360000A0407047000300502DE9F04FDFF894917F
:10361000DFF894A185B01546834600EB810140F2A6
:10362000FF18594503D1002005B0BDE8F08FDBF845
:1036300000305E04C3F3C322C3F3080400F1AC807E
:103640005B0C19F80270444508BF4FF0FF34222B81
:1036500000F2A580DFE803F012191F22252B22A318
:10366000A3A3A33B68A3A3A3A3A3A3A3A3A36B8127
:103670008487A3A3A38A9194979A9D00C5F80C45CB
:10368000601C5ED10BF1040BCBE7C5F81445621C3E
:10369000F8D000265FE0C5F80845F1E7C5F8104509
:1036A000F5E7631CC5F80845ECD0002604E0661C6D
:1036B000C5F80C45E6D0012603A80394FFF794FF54
:1036C000039B012202FA03F3C0F80C3508E0C5F8A9
:1036D0000845002FDBD1631CD4D0002632460627D4
:1036E000DBF80030019303F40040002818BF0022EB
:1036F00003A8009218BF01260394FFF775FF039CEF
:10370000019B009A00EB8400C3F3412CD0F80047E2
:103710003B0243EA8C03134304EA0A04234343EACB
:103720004603C0F80037ADE7C5F80C45D1E7C5F84A
:103730006045601CDBF80030A4D0C3F30043002BCD
:10374000B9D003A80394FFF74FFF039B012606FAA5
:1037500003F3C0F808353246C2E7C5F86445E8E728
:10376000C5F86845E5E7C5F86C45E2E7C5F82445C6
:10377000621C87D000220126B2E7C5F828457FE702
:10378000C5F83045F4E7C5F83445F1E7C5F83845E4
:10379000EEE7C5F83C4573E76FF0150044E76FF0BE
:1037A000850041E7248A0000F0F8FCFFF7B51D46CC
:1037B00043680469D3F800C006464FF02003EFF3D6
:1037C000118783F31288BFF36F8FE368D86838B12D
:1037D00087F31188BFF36F8F6FF00F0003B0F0BD58
:1037E000DA60E36899604FF48003CCF8043301F0A9
:1037F0006043B3F1005FE36811D11961E3685A6176
:103800002146304603F047FE87F31188BFF36F8FE0
:10381000E37A012B01D16B1C06D10020DEE7D861D1
:10382000204603F0B1FDEBE70B480C4AE46825EABB
:10383000E5754FF4004600210023C5FB0601FDF7A6
:1038400001FA203402460B4600200021CDE9000198
:10385000204602F037FCE0E73F420F0040420F00F5
:103860002DE9F7430746002201210220FEF764FFFD
:103870000220FEF731FF7E683D6934684FF0000892
:10388000C4F800852F60D6F80C9001AA414648463E
:1038900003F07DFC002839DB019BD9F80020197961
:1038A0001868FFF7B1FE002830DB6B7AD7F810C03C
:1038B000012B03D0032B27D14FF01008AB7A032B39
:1038C00022D1E97A09B101291ED12A7A12B1022A3C
:1038D0001AD10E226B687868B3F5164F006800F0B5
:1038E000E88034D8B3F5165F00F0E6801AD8B3F557
:1038F000966F00F0E3800CD8B3F5967F00F0E1807E
:10390000B3F5167F00F0E0806FF0850003B0BDE8EE
:10391000F083B3F5166F00F0DA80B3F5965FF3D15C
:10392000804B45E0B3F5E14F00F0D48008D8B3F503
:10393000615F00F0D180B3F5964FE5D17A4B37E067
:1039400047F6122E7345DFD14FF4000330E0B3F594
:10395000613F00F0C38015D8B3F5963F00F0C180F9
:103960000AD84DF6C02E734500F0BD80B3F5614F07
:10397000CAD14FF46B031BE0B3F5E13FC4D14FF064
:10398000EB7315E0B3F5612F00F0B0800AD8DFF8D3
:103990009CE1734500F0AD80B3F5E12FB4D14FF059
:1039A000E86305E0DFF888E17345ADD14FF080535F
:1039B000C0F824357B6841EA08011B680A43C3F854
:1039C0006C25D5E901010CF1040383E80300736859
:1039D000990713D505F11C0001F03EFB554B9842A9
:1039E00040F09C80287F04F10C0204F5907103F0F4
:1039F00084FE2B7F0120984000F032FEEB68002B04
:103A00007AD07B68D7F810801B680422C3F804239F
:103A1000D8F80C100122C1F8C0204749C3F804139C
:103A20000821C3F80015D3F84C11A1B15A60D3F89E
:103A300044211AB9D3F82421002AF8D00022C3F86F
:103A40004C21D3F84C11C3F81021D3F81011C3F84E
:103A50004421D3F84431D8F80C0038490022803092
:103A600004F080F8D8F80C30C3F8B480D8F80C0013
:103A700033490022203004F075F8D8F80C30C3F830
:103A8000548073689A075CBF4FF48073C4F80433A2
:103A90007368DB0644BF4FF48003C4F804336B69DA
:103AA000C4F8443500200123C4F84805A360E3604E
:103AB0002CE74FF41D037BE7224B79E74FF49E235D
:103AC00076E74FF4A03373E74FF41C3370E74FF4FD
:103AD0001D236DE71C4B6BE71C4B69E74FF06C73C4
:103AE00066E71B4B64E74FF4650361E74FF07063D3
:103AF0005EE74FF080635BE70823C4F80035337A54
:103B0000002BBED1C4F81031D4F81031AB69C4F821
:103B100034350123C4F838352360B2E76FF0040070
:103B2000F4E600BF00B0130000A04E0090D00300E8
:103B300040420F000000AD0B10020A00E3750000C8
:103B4000B77600000050270000C0750000F03A0072
:103B500000903A012DE9F041044605690E4603F054
:103B6000BDFEB0B92A4B1B789BB16427606803F097
:103B700082FC002838D1012003F0BDFD013FF5D1C2
:103B80000021212001F0ACFFEFE781F31188BFF3A2
:103B90006F8F4FF02003EFF3118183F31288BFF38F
:103BA0006F8FD4F8048040460F4603F064FC002871
:103BB000EBD0EB685BB1DA684AB1D3F8BC20002ADD
:103BC00005DAD8F80020D2F84C25C3F8BC206B6980
:103BD0001E7069690122204603F0F3FA87F3118809
:103BE000BFF36F8FBDE8F0814FF02003EFF3118139
:103BF00083F31288BFF36F8F60680F4603F03BFCBE
:103C00000028E4D181F31188BFF36F8FB8E700BFBC
:103C1000741600202DE9F04143681D680369D5F84A
:103C2000081188B0044669B10022C5F80821D5F80A
:103C30000821DA68D2F8B8300133C2F8B83008B0D9
:103C4000BDE8F081D5F8243123B3C5F82411D5F8A7
:103C5000243143681B68D3F88064C3F8806414225D
:103C600003A803F0B6FF0623F2078DF80C3000F12D
:103C70000C81B30700F10B81770700F10A8106F090
:103C80000806204603A98DF8106003F0C2FA20460A
:103C900003F055FBD5F81031002B33D0D5F80433A1
:103CA000D8062FD54FF00008C5F810812669D5F841
:103CB000103163681F68F368012283F8CE20F06832
:103CC000803003F05BFFF268D7F83C1592F8C930FA
:103CD00082F8C980F268106E1B1A0B44106F23EA39
:103CE000E37108444345106702DD204603F098FA6B
:103CF000F16891F8CA3003F0FF02002B40F0CB804E
:103D000081F8CE20D5F84C3183B3D5F810616EBB65
:103D1000C5F84C6114222769D5F84C31314603A807
:103D200003F057FF032303A920468DF80C3003F05E
:103D300070FAFB685A6F511C18D0DA67FF688F4918
:103D4000B86F8F4A20EAE07C8E464FF4004031463F
:103D5000CCFB00E100237046FCF774FF02460B46E3
:103D6000CDE9000107F1800002F0ACF9D5F844314B
:103D700063B3D5F810614EBBC5F844612769D5F827
:103D80004431F968D4F804805831204603F061FAD0
:103D9000F9682046643103F05CFAFB6883F8CA6076
:103DA000FB6893F8CB2032B183F8CB606068324671
:103DB000314603F001FBD8F80430D80603D50221C0
:103DC000204603F02EFB204603F05BFAD5F82031A5
:103DD000DBB1D5F80433D90517D563681B684FF0FC
:103DE0002001EFF3118281F31288BFF36F8FD3F8B4
:103DF000201131B10021C3F82011D3F82011012185
:103E0000D96082F31188BFF36F8FD5F85831002B3A
:103E10003FF415AFD5F804335A027FF510AF63684D
:103E20002569D3E90073DB0666D4EB689B68002B39
:103E30003FF405AF4FF02003EFF3118283F31288B4
:103E4000BFF36F8FEB68D3F8BC100029ACBFD3F879
:103E5000BC60D7F84C6582F31188BFF36F8FEB68B5
:103E600093F8CD20002A54D04FF02003EFF31186B1
:103E700083F31288BFF36F8F2946204603F00BFBB4
:103E800086F31188BFF36F8FD9E60126F9E6022683
:103E9000F7E60426F5E65831204603F0DAF94FF04C
:103EA0002003EFF3118183F31288BFF36F8FF36860
:103EB0005A6EF2B19A65F3689A6EDA65F268002379
:103EC0005366F2689366F2681366D7F84C310BB903
:103ED00001233B60D7F8003223F02003C7F80032FB
:103EE00081F31188BFF36F8FF368002283F8CE202F
:103EF00008E701237B60F3E74FF48003C7F808333A
:103F00000121204603F08DFAEB68DB68002B8CD191
:103F100095E699681A6991420CD05969DA69B142FB
:103F2000324428D1DA61284603F02EFA00289BD1CA
:103F3000EB68DE69E868203003F020FE14220021DF
:103F400003A803F046FEEB689A68CDE90426DB6817
:103F50009E421CBF01238DF80C304FF48003C7F83C
:103F60000833EA6800239360EA6803A9D360204617
:103F700003F04FF963E61646DCE700BF3F420F004F
:103F800040420F0070B5012383400E4ABFF35B8FA0
:103F9000DC4352E8001F01EA040542E80056002E07
:103FA000F7D1BFF35B8F4FF4803282400648C0F8F0
:103FB0000823BFF35F8FBFF36F8F0B4214BF012045
:103FC000002070BDD00E00200010014070B40E49DA
:103FD000D1E90034D01AC31844F1000422F07F461E
:103FE000C1E90034A6F50013B3F5400F09D2074B21
:103FF0001B681A0A1B069C19054B42F10005C3E910
:10400000004570BC01F068BF50070020D40E0020AE
:104010005807002011B3BFF35B8F0123104A834080
:1040200052E800CF4CEA030C42E800C10029F7D166
:10403000BFF35B8F0B4A4FF480338340C2F80433E5
:10404000094BBFF35B8F1B68BFF35B8FC340DB077C
:1040500042BF064B4FF40032C3F80021704700BF47
:10406000D00E002000100140CC0E002000E100E046
:104070000D4B1868010A0006BFF35F8F0B4BD3F896
:104080000435181841F10001B3F5801F0AD2084B1E
:10409000D3E90023904271EB030303D210F1807047
:1040A00041F10001704700BFD40E00200010014014
:1040B000580700202DE9F04F85B016461F469DF8A1
:1040C00040A00446FFF75EFF0190FFF7D1FFB0422A
:1040D00071EB070354D23E4B301A67EB0101984253
:1040E00071F100014FD23B4B03EB0413D3E90223E0
:1040F0009F4208BF96425ED037494FF4803804F1A2
:10410000500508FA04F8AD00C1F848832046ADB266
:1041100003F0D5FA26F07F4B05F1804504F5A8732E
:1041200005F58835DC464FF003090293029A2CF01E
:104130007F4341F82230C1F84483D1F80435274A3F
:104140006FF00200C01A604420F07F40904232D9E4
:10415000286868B1D1F804350393A3EB0B0020F075
:104160007F40B0F5000F26D9204603F0A8FA039B44
:10417000BAF1000F07D109EB030C09F10109D5E7EA
:10418000BAF1000F09D06FF0150520460199FFF72D
:1041900041FF284605B0BDE8F08F0123104ABFF368
:1041A0005B8FA34052E8000F184342E8000100294A
:1041B000F8D1BFF35B8F07490E98230101EB04127E
:1041C000C8500F9B5360C2E902670025DDE700BFBE
:1041D000010080004007002000100140FDFF7F002B
:1041E000CC0E00207FB51C4C1C4BC4F80833C4F81F
:1041F00048331B4B00254FF0FF304FF0FF31C4F820
:104200000855C3E902014FF48033C4F80433154B59
:1042100002264FF400320121C4F804631120C3F8D0
:1042200080212A46FEF788FA1120FEF755FA0E4A39
:104230000123A360236013600C4B0D4A0093CDE96A
:10424000015500232846FFF735FF3046FEF796FF5D
:10425000284604B070BD00BF0010014003000F00ED
:104260004007002000E100E0D00E0020CD3F00001C
:10427000FFFF7F002DE9F7432F4CD4F80433990753
:104280000BD5D4F8043143B12C4A0023C4F80431CF
:10429000D4F80431136801331360D4F80433DA031B
:1042A0002AD5BFF35B8F264B53E8002F22F0010184
:1042B00043E800100028F7D1BFF35B8FD30702D487
:1042C000D4F84031C3B10025C4F84051D4F840318E
:1042D000FFF7CEFE4FF02003EFF3118283F3128835
:1042E000BFF36F8F174BD3E90267B042B94106D2D3
:1042F00082F31188BFF36F8F03B0BDE8F0834FF0F6
:10430000FF384FF0FF39C3E90289D3E900101D607F
:104310004FF48033C4F84833C4F84051D4F84031E6
:1043200082F31188BFF36F8F0029E5D000903246E9
:104330003B4628468847DFE700100140D40E0020A6
:10434000CC0E00204007002030B5431C124C85B035
:1043500005D08442A8BF0446012CB8BF0124FFF752
:1043600087FE0E4B0C4DD3E90013401AB0F5000F39
:1043700010D22218AA4228BF2A4652184FF0000035
:1043800007490091CDE9010043F10003FFF792FED8
:1043900005B030BD2A46F0E7FFFF7F005007002040
:1043A000CD3F000008B5FFF763FE024B1B68C01A43
:1043B00008BD00BF5007002010B5084C0123636002
:1043C0001120FEF797F9064BC4F80833C4F84833B8
:1043D000044B4FF40032C3F8802110BD001001409F
:1043E00003000F0000E100E04FF08053D3F83021CC
:1043F000082A06D1D3F83431052B02D8024AD05C02
:1044000070470020704700BF408A0000024AD2F87F
:104410000034002BFBD0704700E0014010B54FF096
:104420008053D3F83021082A4ED14FF0804200212A
:10443000C2F80C11C2F81011C2F8381502F540424A
:10444000D3F80414C2F82015D3F80814C2F82415C0
:10445000D3F80C14C2F82815D3F81014C2F82C1590
:10446000D3F81414C2F83015D3F81814C2F8341560
:10447000D3F81C14C2F84015D3F82014C2F8441520
:10448000D3F82414C2F84815D3F82814C2F84C15F0
:10449000D3F82C14C2F85015D3F83014C2F85415C0
:1044A000D3F83414C2F86015D3F83814C2F8641580
:1044B000D3F83C14C2F86815D3F84014C2F86C1550
:1044C000D3F84434C2F87035FFF78EFF18B13A4B79
:1044D0003A4AC3F88C26FFF787FF18B1384BFB2206
:1044E000C3F81825FFF780FF70B14FF080414FF0FF
:1044F0008053D1F8E42ED3F8583222F00F0203F0A3
:104500000F031343C1F8E43EFFF76EFF20B12D4BBC
:104510004FF40072C3F840264FF08053D3F8303187
:10452000082B1AD14FF08043D3F80024D20744BFA0
:104530006FF00102C3F800244FF08053D3F83431F8
:10454000052B02D8204AD35C3BB14FF01023D3F89F
:1045500008224FF08043C3F858254FF01023D3F8BA
:104560000022002A03DBD3F80432002B22DA174999
:1045700001234FF01020C1F804351224FFF746FF45
:10458000C0F80042FFF742FFC0F80442FFF73EFFC9
:104590000023C1F80435FFF739FFBFF34F8F0C49F3
:1045A0000C4BCA6802F4E0621343CB60BFF34F8F39
:1045B00000BFFDE710BD00BF005000404881030070
:1045C00000F00040009002403A8A000000E0014004
:1045D00000ED00E00400FA0530B50468CCB1BFF38B
:1045E0005B8FB4FA84F3C3F11F03DBB201229A405C
:1045F00024EA020250E8005FA54204D140E8002C02
:10460000BCF1000FF6D1BFF35B8FE6D102480B700F
:1046100030BD0248FCE700BF0000AD0B0200AD0B4F
:1046200010B50368CB40DB0714D401238B4002682C
:10463000BFF35B8F43EA020150E8004F944204D17C
:1046400040E8001CBCF1000FF6D1BFF35B8FEED148
:10465000014810BD0148FCE70000AD0B0400AD0BA4
:10466000014BC3F80405704700F00140F7B504465C
:1046700018B1012823D003B0F0BD4FF080430222CF
:10468000C3F808230122DA60C3F80401D3F8043127
:10469000064601238DF8073042F210754FF080472F
:1046A000D4B1012CE7D1D7F80C3403F48033AEBB7E
:1046B00083B3012003F01FF8013DF4D12AE04FF04D
:1046C00080430022C3F808035860C3F80021D3F8E0
:1046D00000310DF10706DCE7D7F8183403F4803316
:1046E0003EB9002BC7D0012003F005F8013DF3D1FE
:1046F000C1E7D7F8182402F003023260002BBAD0C9
:104700009DF80700012803D102F0F5FF013DC7D154
:10471000012CB0D1054B00225A71ACE7D7F80C241C
:1047200002F001023270002BEAD1F3E7D80E00202C
:10473000044B1A7922B9012218609A800248704706
:1047400002487047D80E00200000AD0B0C00AD0BE6
:1047500008B5074B1B682BB10020FDF7DFFF08B938
:10476000FDF7BAFF4FF080430022C3F8182508BDBB
:10477000D80E002010B510B1012843D010BD4FF065
:104780008043D3F81814D3F81824C80321D502F0B5
:104790000303012B04D013B10020FFF767FF0023B0
:1047A0004FF080420220C2F8183508224FF482737D
:1047B00003F180430021196002F180421C6801244A
:1047C0001460154A12680AB34FF08043C3F804031B
:1047D000D4E7D3F81424D107E1D5D3F81C249207E9
:1047E000DAD40D4A12681AB10222C3F80423C5E7CD
:1047F000D3F80421002AFBD00022C3F80421D3F807
:104800000431BBE700224FF48073D1E71A68002A15
:10481000FCD019601B68B1E7D80E002010B54FF02E
:104820008043D3F800216AB10022C3F80021D3F8F5
:1048300000210122C3F80823114B587910B95A718D
:104840001B6898474FF08043D3F8042172B10022CF
:10485000C3F80421D3F80421D3F81824D3F818247A
:10486000920704D10122C3F818259A6010BD0222D4
:10487000C3F80823024BBDE810401B68012018470D
:10488000D80E0020036803F01F025B09026004D009
:10489000012B034818BF002070474FF0A04070471D
:1048A00000030050034A430900F01F00D35C184482
:1048B000C0B27047468A000070B50546FFF7F2FFA8
:1048C0000C4C08300E4634F81030DA0508D5C3F326
:1048D000432304EBC302284654F833305268984708
:1048E000A3682BB1E26831462846BDE870401847FE
:1048F00070BD00BFF001002008B5FFF7D3FF034BE8
:10490000083033F81000400B08BD00BFF001002054
:1049100008B5FFF7C7FF034B083033F81000C0F3AA
:10492000400008BDF001002008B5FFF7BBFF034BB6
:10493000083033F81000C0F3401008BDF00100202B
:10494000034611F0010010B5CCB20DD1A207C4F39B
:10495000400012D5094AD2F820055860C2F8200557
:10496000003818BF012008E04FF0A041D1F8202501
:104970001A60C1F82025002AE8D010BD00030050BD
:1049800010B5FFF78FFF124A083032F81030D90502
:104990001CD5C3F3432123F4F85322F8103002F15D
:1049A0000E04002034F8023F13F4807F03D0C3F3D9
:1049B000432399420AD001303028F3D1002342F832
:1049C00031300448BDE81040FFF72ABE10BD00BFDB
:1049D000F001002068020020F0B5054600200446E2
:1049E000012607468C420BD1114BD3F87C2132B102
:1049F0000022C3F87C21D3F87C3140F00040F0BDA8
:104A0000E3B29B0003F580729B0806FA03F31D4294
:104A10000BD002F1804202F5C042D2F800C0BCF1D6
:104A2000000F02D01760126818430134DAE700BFA4
:104A300000600040F7B506460846FFF733FF194F00
:104A400000F108050C4637F81530DB0727D530464E
:104A500002F0B7FE2046FFF767FF40B12046FFF7A0
:104A60004BFF316800F5A270002341F8203020464A
:104A7000FFF786FF002301A827F815300194FFF700
:104A800001FF019B00EB8300074BD0F80027134088
:104A900043F00203C0F80037044803B0F0BD0448F7
:104AA000FBE700BFF0010020F0F8FCFF0000AD0BB9
:104AB0000400AD0B2DE9FF41164680460846FFF77E
:104AC000F1FE0D463168044609B32846FFF720FF82
:104AD00018B12846FFF728FF10BB0023CDE90033AB
:104AE0008DF80E308DF80F300DF10F020B46284671
:104AF0000DF10E0102F00DFE474A04F1080132F8F3
:104B0000113023F0020343F0010322F811307368DF
:104B100063B328461F785968FFF7FAFE10B1D1B188
:104B20003E4826E03C4A04F1080032F8103023F0F9
:104B30002003DB04DB0C22F8103061B1032FEFD827
:104B40007168496891F800C0D8F80010A7B90CF551
:104B5000A27C41F82C70304A04F1080132F811307F
:104B600023F01C0343EA870322F81130B3684BBBE0
:104B70002B4804B0BDE8F08101EB8C0143EA4C33D3
:104B8000D1F810E52EF0030EC1F810E5D8F80010AA
:104B900001EB8C0E43F02003DEF8101522F81030E4
:104BA00021F44F3121F44071CEF810152902DEF8BE
:104BB000108501F47C5141EA074141EA0801CEF831
:104BC0001015C8E7D3E900672846FFF7D9FE002E85
:104BD000CED0114DD5E90023964203D19F4201D199
:104BE000002209E00F480DF10F01FFF7F5FC0C4B17
:104BF0009842BED19DF80F2045F8326005EBC20304
:104C000008345F6035F8143043EA422343F480737C
:104C100025F81430ACE700BFF00100200400AD0B14
:104C20000000AD0B680200202DE9F0430C4685B072
:104C30008046204611461E46FFF734FE054629B33E
:104C40002046FFF765FE18B92046FFF76DFE18BB3A
:104C5000314F05F1080937F8193013F01C0F02D055
:104C60004B78012B18D001238DF80F300023CDE9AC
:104C700000134A1C8B1C20460DF10F0102F049FD68
:104C800037F8193043F0030327F81930002E41D0CC
:104C90002046FFF73DFE18B9204805B0BDE8F08377
:104CA00096F800C0D8F800301B4F0CF5A272002116
:104CB00043F8221005F1080237F8121021F0200104
:104CC000C904C90C27F8121075781DB3D8F8000074
:104CD000B67800EB8C002D04D0F8103523F499132E
:104CE00023F4F853C0F81035230203F47C5305F481
:104CF00040353605D0F810E52B4306F4801641EA1E
:104D00004C31334341F0200143EA0E0327F81210DF
:104D1000C0F810350248C0E7F00100200400AD0BD8
:104D20000000AD0B014BC3E902127047F0010020F7
:104D300010B508461446FFF7F7FD50B10846FFF7D7
:104D4000B1FD054B083033F8103004485B0B23707D
:104D500010BD0348FCE700BFF00100200000AD0BD0
:104D60000400AD0B70B5184E96F8804005464CBB5C
:104D70002146602206F1100002F02BFF2D68306FF3
:104D80002146884212D10023C5F87C3145F3073013
:104D9000D5F87C31FDF7A0FC4FF00043C5F8043393
:104DA0000A48012386F88030B36770BDCBB29B0000
:104DB00003F580727C2B08BFAC5001F1010108BFE4
:104DC000AB58DEE70248F0E7F00100200000AD0B31
:104DD0000C00AD0B034B93F88000003818BF012086
:104DE000704700BFF00100200148FFF719BC00BF69
:104DF000640200200148FFF7EFBB00BF64020020FF
:104E000073B5054608460C461646FFF78DFD00B300
:104E10000846FFF77DFD0146D8B92046FFF76CFD37
:104E200004B2A40004F58072034628688150296802
:104E300082582144D1F8102542F00102C1F8102512
:104E40002EB12968012202FA03F3C1F8043302B03B
:104E500070BD2046FFF726FD0F4B083033F81030A9
:104E6000C3F38203042B12D0052B12D001A80194A6
:104E7000FFF708FD019AD0F81035D34003F0010385
:104E8000991C204602B0BDE8704002F08BBC0321A3
:104E9000F7E70221F5E700BFF00100202DE9F04F10
:104EA000694BDFF8A881D3F80403D8F87010C0B2BA
:104EB00089B040F00040FFF78FFD051E2FDAC24693
:104EC00000235AF87C1F06A8CDE90633FFF738FD0A
:104ED0005F4B01930DF118094FF0000B019A12F886
:104EE000013B0192DA0803F007031AF8022022FAC4
:104EF00003F3DA071CD409F10409BBF1000F14D045
:104F0000D8F870104FF00040FFF766FDD8F87C101D
:104F100006A8FFF715FD0028DAD125F00045012489
:104F2000002D79D109B0BDE8F08F4FF0010BD5E726
:104F3000484B5B440293D9F800100029DBD0029B58
:104F400091FAA1F11C78B1FA81F141EA44142046AA
:104F5000FFF7A8FC0830059438F81070C808BB08A3
:104F600019F80020039301F00701012303FA01F16E
:104F700022EA010209F8002005A8FFF783FC059A40
:104F8000039B02F5E072C7F3820650F822205B070C
:104F90003746C2F3014224D520463946D6B2FFF740
:104FA0008BFC05A80594FFF76DFC059B03F5E073EA
:104FB00050F82330C3F301439E4207D1002120461D
:104FC00002F0F0FB3146204602F0ECFB05A8059408
:104FD000FFF758FC059B012202FA03F3C0F82035C5
:104FE000A9E7022A0CD10321204602F0DBFB06F0E0
:104FF0000503012BEAD139462046FFF75DFCE5E7C2
:1050000002212046039202F0CDFB032EF3D0039A37
:10501000032ADBD1022EEDE795FAA5F3B3FA83F369
:1050200004FA03F29B0003F1804303F5C04325EA31
:105030000205D3F81005D3F81015C0F30520C1F30D
:105040000141FFF739FC6BE700600040F0010020F0
:10505000568A0000568A000001460148FFF7BCBA94
:105060007402002008B5144BA8220021184602F053
:10507000B0FD0322026111494261114A8161C2619E
:105080004FF480620262002282624262C262016662
:105090000C4941661021816603460267C266426779
:1050A000BFF35F8F084911F8010D98540132102A9F
:1050B000F9D1BFF35F8F08BDE00E0020588A0000D1
:1050C0007412002064120020718A000038B54FF07D
:1050D0002003EFF3118583F31288BFF36F8F064B24
:1050E0009C6802F0F8FA85F31188BFF36F8F2046B1
:1050F000BDE83840FDF780BA8C0F0020104B70B52A
:1051000053F82040013053F82060A64200D870BD0B
:10511000D4E9003595B153B12846984738B10028F5
:10512000B8BF4042EB68FF28A8BFFF201870EA68AC
:10513000537843F0010353700834E6E79847FBE7E0
:10514000FC80000008B50A4B012203201A70FFF70B
:10515000D5FF00F0F1FF0420FFF7D0FF00F080F949
:10516000FCF722FA034A137B23F00103137308BDF3
:1051700074160020E007002008B50348034A002108
:10518000121A02F05DFB08BD4003002078160020D3
:1051900070B5002386B00122CDE90423194E1A4DC3
:1051A00001930F22CDE902321849142303FB005565
:1051B00006EBC01604464FF4C070154B00954FF433
:1051C000A07200FB0411304600F0D6F8737B114A40
:1051D000EE6023F0040373734FF4046304FB0333A2
:1051E00013446B600C4B2C74BFF35B8F53E8001FB0
:1051F000013143E80012002AF8D1BFF35B8F06B0FB
:1052000070BD00BF600700208C0F0020C040002050
:10521000DF7A000080380020880F002080B5002051
:10522000A6B0FFF76BFF2D4B83F308882C4D2D4E56
:105230006B692D4F43F400736B610024E02385F804
:105240002230EC772C766C76AC7685F820406B6A51
:1052500043F4E0236B6285F82340FDF73BF9FDF74B
:10526000EDFA4FF0FF33AB62EB62FDF7C9FBFDF7E0
:1052700025FB40F20113ADF8243006ABB360CDE955
:105280001E44219402F0D0FA0120FFF737FF0220DC
:10529000164DFFF733FF00F099FB154B7561059331
:1052A000012314490094CDE903434FF480623B4647
:1052B000CDE90144284600F05FF86A7B064622F0FB
:1052C000040228466A7302F049FB2046FFF760FF9C
:1052D0003A4631462846FDF795FA00BFC040002007
:1052E00000ED00E08C0F002045510000E007002099
:1052F000728A00004042002038B5064C064D00205E
:10530000AC4200D338BD204602F09EFA0028F9DBFB
:105310001C34F5E7EA020020EA02002073B50C46CF
:105320004FF02005EFF3118185F31288BFF36F8FE3
:10533000C5685DB125602B68C360836901338361F3
:10534000002081F31188BFF36F8F11E052EA03064A
:1053500003D125606FF00B00F3E7CDE9002302468F
:10536000083000F05BFA18B9024B9B685B69236058
:1053700002B070BD8C0F00202DE9F04385B00F46C0
:105380000732109901739846042100F1580322F066
:105390000706C0E91633417300230F99836016F1A5
:1053A0004005C0E9063304468173C37307F1400921
:1053B00005D3404080F311884FF0040002DF3D44E4
:1053C00029462046FCF714FF07300E9B20F007000B
:1053D000A066C4E9189602930D9B01932D1A0C9BAD
:1053E00000932A46434639462046FDF7D9F9002363
:1053F0006365044B9B6803B1DB6EE366284605B02A
:10540000BDE8F0838C0F0020F0B587B0002505952E
:10541000109D04950F9D03950E9D0295DDE9127672
:105420000D9D01950C9D00950446FFF7A5FFB6F173
:10543000FF3F08BFB7F1FF3F05D056EA070305D18C
:10544000204600F061FA204607B0F0BD03493A4615
:10545000334604F1180000F0C9FCF4E71B7A0000A1
:1054600070B5224C224D86B02646AE4204F130047F
:105470000AD300F07BFA1D4C1E4EAC4220D306B07E
:10548000BDE8704000F086BA54F80C3C059354F81F
:10549000103C049354F8143C039354F8183C0293C2
:1054A00054F81C3C019354F8203C009354E90A231F
:1054B00054E90C01FFF760FF54F8303C5E65D3E718
:1054C000D4E90A23B3F1FF3F08BFB2F1FF3F05D093
:1054D00052EA0301206803D100F016FA3034CCE719
:1054E0003146183000F082FCF8E700BFA07F0000D2
:1054F000A07F00001B7A0000C3897F2B12D80A4BC3
:105500001B6863B1094B90F90E201B689A4209DBB6
:10551000437BDB0606D1064BC31A18BF012303F0F9
:10552000010070470023FAE7B40F0020B00F0020FD
:1055300060070020044BC01A044BC0105843044BB2
:1055400001221A54704700BF60080020ABAAAAAA23
:105550007516002070B50E4B0E4C1E7C06EB4603F4
:1055600004EBC3040546204602F0E0FA0A4B002291
:1055700028469A55FFF7C0FF48B1084B08491A68FA
:10558000013A2046D317BDE8704000F02FBC70BD33
:105590008C0F00206008002075160020B40F00203A
:1055A0003555000038B50D4D2B4653F8184F9C4229
:1055B00000D004B9EC68AB6838B95A7BD20604D184
:1055C000A26912B9DA897F2A05D89C4202D0204606
:1055D000FFF7C0FF23466B6138BD00BF8C0F002072
:1055E00070B590F90D20437B002A014604DA03F0E0
:1055F0007F03437302F078F94B7B154A63F07F0316
:1056000010464B7350F8183FD469834208BF0023FB
:1056100023B9C1E900042160D1610CE091F90E5079
:1056200093F90E60B5420ED0AE420CDD5868C1E968
:105630000030016059609068431A5842BDE87040DC
:105640005841FFF7AFBF9C42E3D01B68E0E700BFC3
:105650008C0F002070B490F90D30427B002B29DBB9
:10566000D30627D183692BBB134962F07F024273B3
:105670000A4652F8184F944218BF2346CC6923B902
:10568000C0E900242060C8610CE090F90E5093F945
:105690000E60B5420AD0AE4208DD5A68C0E9003259
:1056A0001060586070BC0020FFF77CBFA342E7D0B9
:1056B0001B68E4E770BC70478C0F002008B590F9B8
:1056C0000D20437B002A014604DA03F07F03437375
:1056D00002F00AF9044B9868431A58425841BDE851
:1056E0000840FFF75FBF00BF8C0F002070B5154664
:1056F0001C46064602F00AF9B4F1FF3F08BFB5F1B7
:10570000FF3F08D02A46234606F118000249BDE8AB
:10571000704000F06BBB70BD1B7A00002DE9F041BA
:10572000002A437B0E460CBF102108211942044673
:105730000AD10B43DD0903F09F0211D142730829FE
:1057400014D00120FFF72EFF1B4B9B68A3422CD1E6
:10575000EFF305834BBB3046BDE8F041FCF762BF79
:1057600003F01F03437302F0BFF8E8E7A36813B127
:10577000204602F0C1F804F1180002F0D7F904F154
:1057800058074FF00008A56DBD42DAD0002DD8D0E3
:10579000284602F0B1F805F1180002F0C7F9C5F883
:1057A00078802846FFF756FFEDE786F31188BFF3B0
:1057B0006F8FBDE8F08100BF8C0F002038B54FF02F
:1057C0002003EFF3118583F31288BFF36F8F104B23
:1057D000104A9C681068A04206D1FFF7BBFE85F313
:1057E0001188BFF36F8F38BD00211B7C11600A4AFE
:1057F000D35C002BF3D02046FFF77EFE0028EED0CE
:10580000637BDB0602D12046FFF7EAFE2046E4E791
:105810008C0F0020AC0F00207516002070B50C48CE
:105820000C4D86682E600C461146DDE904234FF0CE
:105830002006EFF3118586F31288BFF36F8F80681F
:10584000FFF754FF2046BDE87040FCF7EBBE00BFF9
:105850008C0F0020AC0F0020F8B504464FF0200359
:10586000EFF3118683F31288BFF36F8F437BDA0661
:1058700049B219D18569BDB903F07F03437302F0C2
:1058800033F8437B164A817363F07F0343731346F7
:1058900053F8180F984218BF0546D0695DB9C4E99E
:1058A00000300460D46111E0A173002086F31188F8
:1058B000BFF36F8FF8BD95F90E70B9420BD08F42D0
:1058C00009DD6B68C4E900531C606C600120FFF7C0
:1058D00069FE0120EAE7A842E1D02D68DEE700BFBB
:1058E0008C0F002049B9EFF3058030B9054B5A6998
:1058F0009B689A4201D0FCF795BE81F31188BFF3F3
:105900006F8F70478C0F002010B54FF02002EFF31F
:10591000118482F31288BFF36F8F427B510704D446
:1059200084F31188BFF36F8F10BD22F0040242731D
:10593000FFF790FE21460248BDE81040FFF7D2BFB6
:1059400076160020034648B9EFF3058232B9064ABD
:1059500051699268914201D0FCF764BE83F31188CB
:10596000BFF36F8F704700BF8C0F00204FF02003F4
:10597000EFF3118183F31288BFF36F8F044B9A68A2
:10598000D37B013BD37381F31188BFF36F8F7047D3
:105990008C0F002010B54FF02003EFF3118483F338
:1059A0001288BFF36F8F084B9A68D37B0133D37390
:1059B0000020FFF7F7FD84F31188BFF36F8FBDE878
:1059C000104002F061B800BF8C0F0020024B03F1C1
:1059D0001802C3E9062270478C0F0020F8B54FF07B
:1059E0002003EFF3118583F31288BFF36F8F1949FA
:1059F0008868437B03F07F03437301F075FF8B6876
:105A00005A7B084662F07F025A7350F8182FCC690F
:105A1000824208BF002222B9C3E900042360CB619F
:105A20000CE093F90E6092F90E70BE420ED0B742B0
:105A30000CDD5168C3E900210B6053600120FFF7C2
:105A4000B1FD2846BDE8F840FCF7ECBDA242E3D02A
:105A50001268E0E78C0F002050EA01032DE9F041C5
:105A600005460E4603D1FFF7B9FF00202CE0831C4A
:105A700071F1FF332ADB02F06FF82C184FF020038E
:105A8000EFF3118883F31288BFF36F8F114F124B1E
:105A9000B8681860FFF712FEB86810492A46334606
:105AA000183000F0A3F9BA68537B43F01003537326
:105AB0004046FCF7B7FD02F04FF8201A63EB0303F2
:105AC000012873F10003D0DBBDE8F0816FF0010421
:105AD000241AD3E78C0F0020AC0F00201B7A0000A3
